{
  "abi": [
    {
      "type": "constructor",
      "inputs": [
        {
          "name": "_minPaymentAmount",
          "type": "uint256",
          "internalType": "uint256"
        },
        {
          "name": "_maxPaymentAmount",
          "type": "uint256",
          "internalType": "uint256"
        },
        {
          "name": "_settlementRegistry",
          "type": "address",
          "internalType": "address"
        },
        {
          "name": "_recipientEmail",
          "type": "string",
          "internalType": "string"
        },
        {
          "name": "_feeBps",
          "type": "uint256",
          "internalType": "uint256"
        },
        {
          "name": "_maxEscrowTime",
          "type": "uint256",
          "internalType": "uint256"
        },
        {
          "name": "_exchangeRate",
          "type": "uint256",
          "internalType": "uint256"
        }
      ],
      "stateMutability": "nonpayable"
    },
    {
      "type": "receive",
      "stateMutability": "payable"
    },
    {
      "type": "function",
      "name": "CHECK_INTERVAL",
      "inputs": [],
      "outputs": [
        {
          "name": "",
          "type": "uint256",
          "internalType": "uint256"
        }
      ],
      "stateMutability": "view"
    },
    {
      "type": "function",
      "name": "FEE_DENOMINATOR",
      "inputs": [],
      "outputs": [
        {
          "name": "",
          "type": "uint256",
          "internalType": "uint256"
        }
      ],
      "stateMutability": "view"
    },
    {
      "type": "function",
      "name": "MAX_CHECK_COUNT",
      "inputs": [],
      "outputs": [
        {
          "name": "",
          "type": "uint256",
          "internalType": "uint256"
        }
      ],
      "stateMutability": "view"
    },
    {
      "type": "function",
      "name": "addAuthorizedAttester",
      "inputs": [
        {
          "name": "a",
          "type": "address",
          "internalType": "address"
        }
      ],
      "outputs": [],
      "stateMutability": "nonpayable"
    },
    {
      "type": "function",
      "name": "authorizedAttesters",
      "inputs": [
        {
          "name": "",
          "type": "address",
          "internalType": "address"
        }
      ],
      "outputs": [
        {
          "name": "",
          "type": "bool",
          "internalType": "bool"
        }
      ],
      "stateMutability": "view"
    },
    {
      "type": "function",
      "name": "completedEscrows",
      "inputs": [
        {
          "name": "",
          "type": "uint256",
          "internalType": "uint256"
        }
      ],
      "outputs": [
        {
          "name": "",
          "type": "bytes32",
          "internalType": "bytes32"
        }
      ],
      "stateMutability": "view"
    },
    {
      "type": "function",
      "name": "escrowIds",
      "inputs": [
        {
          "name": "",
          "type": "uint256",
          "internalType": "uint256"
        }
      ],
      "outputs": [
        {
          "name": "",
          "type": "bytes32",
          "internalType": "bytes32"
        }
      ],
      "stateMutability": "view"
    },
    {
      "type": "function",
      "name": "exchangeRate",
      "inputs": [],
      "outputs": [
        {
          "name": "",
          "type": "uint256",
          "internalType": "uint256"
        }
      ],
      "stateMutability": "view"
    },
    {
      "type": "function",
      "name": "expireEscrow",
      "inputs": [
        {
          "name": "escrowId",
          "type": "bytes32",
          "internalType": "bytes32"
        }
      ],
      "outputs": [],
      "stateMutability": "nonpayable"
    },
    {
      "type": "function",
      "name": "expiredEscrows",
      "inputs": [
        {
          "name": "",
          "type": "uint256",
          "internalType": "uint256"
        }
      ],
      "outputs": [
        {
          "name": "",
          "type": "bytes32",
          "internalType": "bytes32"
        }
      ],
      "stateMutability": "view"
    },
    {
      "type": "function",
      "name": "fee",
      "inputs": [],
      "outputs": [
        {
          "name": "",
          "type": "uint256",
          "internalType": "uint256"
        }
      ],
      "stateMutability": "view"
    },
    {
      "type": "function",
      "name": "feeRecipient",
      "inputs": [],
      "outputs": [
        {
          "name": "",
          "type": "address",
          "internalType": "address"
        }
      ],
      "stateMutability": "view"
    },
    {
      "type": "function",
      "name": "getCompletedEscrows",
      "inputs": [],
      "outputs": [
        {
          "name": "",
          "type": "bytes32[]",
          "internalType": "bytes32[]"
        }
      ],
      "stateMutability": "view"
    },
    {
      "type": "function",
      "name": "getEscrowIds",
      "inputs": [],
      "outputs": [
        {
          "name": "",
          "type": "bytes32[]",
          "internalType": "bytes32[]"
        }
      ],
      "stateMutability": "view"
    },
    {
      "type": "function",
      "name": "getExchangeRate",
      "inputs": [],
      "outputs": [
        {
          "name": "",
          "type": "uint256",
          "internalType": "uint256"
        }
      ],
      "stateMutability": "view"
    },
    {
      "type": "function",
      "name": "getFreeBalance",
      "inputs": [],
      "outputs": [
        {
          "name": "",
          "type": "uint256",
          "internalType": "uint256"
        }
      ],
      "stateMutability": "view"
    },
    {
      "type": "function",
      "name": "getPendingEscrows",
      "inputs": [],
      "outputs": [
        {
          "name": "",
          "type": "bytes32[]",
          "internalType": "bytes32[]"
        }
      ],
      "stateMutability": "view"
    },
    {
      "type": "function",
      "name": "getSettlementStatus",
      "inputs": [
        {
          "name": "idHash",
          "type": "bytes32",
          "internalType": "bytes32"
        }
      ],
      "outputs": [
        {
          "name": "",
          "type": "uint8",
          "internalType": "enum IPayPalRegistry.Status"
        }
      ],
      "stateMutability": "view"
    },
    {
      "type": "function",
      "name": "initPayment",
      "inputs": [
        {
          "name": "idHash",
          "type": "bytes32",
          "internalType": "bytes32"
        },
        {
          "name": "amount",
          "type": "uint256",
          "internalType": "uint256"
        },
        {
          "name": "payableTo",
          "type": "address",
          "internalType": "address payable"
        }
      ],
      "outputs": [],
      "stateMutability": "nonpayable"
    },
    {
      "type": "function",
      "name": "initPayment",
      "inputs": [
        {
          "name": "idHash",
          "type": "bytes32",
          "internalType": "bytes32"
        },
        {
          "name": "amount",
          "type": "uint256",
          "internalType": "uint256"
        }
      ],
      "outputs": [],
      "stateMutability": "nonpayable"
    },
    {
      "type": "function",
      "name": "isEscrowExpired",
      "inputs": [
        {
          "name": "escrowId",
          "type": "bytes32",
          "internalType": "bytes32"
        }
      ],
      "outputs": [
        {
          "name": "",
          "type": "bool",
          "internalType": "bool"
        }
      ],
      "stateMutability": "view"
    },
    {
      "type": "function",
      "name": "isFinalized",
      "inputs": [
        {
          "name": "idHash",
          "type": "bytes32",
          "internalType": "bytes32"
        }
      ],
      "outputs": [
        {
          "name": "",
          "type": "bool",
          "internalType": "bool"
        }
      ],
      "stateMutability": "view"
    },
    {
      "type": "function",
      "name": "isSettled",
      "inputs": [
        {
          "name": "",
          "type": "bytes32",
          "internalType": "bytes32"
        }
      ],
      "outputs": [
        {
          "name": "",
          "type": "bool",
          "internalType": "bool"
        }
      ],
      "stateMutability": "view"
    },
    {
      "type": "function",
      "name": "maxEscrowTime",
      "inputs": [],
      "outputs": [
        {
          "name": "",
          "type": "uint256",
          "internalType": "uint256"
        }
      ],
      "stateMutability": "view"
    },
    {
      "type": "function",
      "name": "maxPaymentAmount",
      "inputs": [],
      "outputs": [
        {
          "name": "",
          "type": "uint256",
          "internalType": "uint256"
        }
      ],
      "stateMutability": "view"
    },
    {
      "type": "function",
      "name": "minPaymentAmount",
      "inputs": [],
      "outputs": [
        {
          "name": "",
          "type": "uint256",
          "internalType": "uint256"
        }
      ],
      "stateMutability": "view"
    },
    {
      "type": "function",
      "name": "owner",
      "inputs": [],
      "outputs": [
        {
          "name": "",
          "type": "address",
          "internalType": "address"
        }
      ],
      "stateMutability": "view"
    },
    {
      "type": "function",
      "name": "payments",
      "inputs": [
        {
          "name": "",
          "type": "bytes32",
          "internalType": "bytes32"
        }
      ],
      "outputs": [
        {
          "name": "payer",
          "type": "address",
          "internalType": "address"
        },
        {
          "name": "recipient",
          "type": "address",
          "internalType": "address"
        },
        {
          "name": "requestedAmount",
          "type": "uint256",
          "internalType": "uint256"
        },
        {
          "name": "requestedAmountUsd",
          "type": "uint256",
          "internalType": "uint256"
        },
        {
          "name": "postedAmount",
          "type": "uint256",
          "internalType": "uint256"
        },
        {
          "name": "postedAmountUsd",
          "type": "uint256",
          "internalType": "uint256"
        },
        {
          "name": "lastCheckTimestamp",
          "type": "uint256",
          "internalType": "uint256"
        },
        {
          "name": "checkCount",
          "type": "uint256",
          "internalType": "uint256"
        },
        {
          "name": "createdAt",
          "type": "uint256",
          "internalType": "uint256"
        }
      ],
      "stateMutability": "view"
    },
    {
      "type": "function",
      "name": "pendingEscrows",
      "inputs": [
        {
          "name": "",
          "type": "uint256",
          "internalType": "uint256"
        }
      ],
      "outputs": [
        {
          "name": "",
          "type": "bytes32",
          "internalType": "bytes32"
        }
      ],
      "stateMutability": "view"
    },
    {
      "type": "function",
      "name": "recipientEmail",
      "inputs": [],
      "outputs": [
        {
          "name": "",
          "type": "string",
          "internalType": "string"
        }
      ],
      "stateMutability": "view"
    },
    {
      "type": "function",
      "name": "removeAuthorizedAttester",
      "inputs": [
        {
          "name": "a",
          "type": "address",
          "internalType": "address"
        }
      ],
      "outputs": [],
      "stateMutability": "nonpayable"
    },
    {
      "type": "function",
      "name": "renounceOwnership",
      "inputs": [],
      "outputs": [],
      "stateMutability": "nonpayable"
    },
    {
      "type": "function",
      "name": "setFeeRecipient",
      "inputs": [
        {
          "name": "newRecipient",
          "type": "address",
          "internalType": "address"
        }
      ],
      "outputs": [],
      "stateMutability": "nonpayable"
    },
    {
      "type": "function",
      "name": "settlePayment",
      "inputs": [
        {
          "name": "escrowId",
          "type": "bytes32",
          "internalType": "bytes32"
        }
      ],
      "outputs": [],
      "stateMutability": "nonpayable"
    },
    {
      "type": "function",
      "name": "settlementRegistry",
      "inputs": [],
      "outputs": [
        {
          "name": "",
          "type": "address",
          "internalType": "contract IPayPalRegistry"
        }
      ],
      "stateMutability": "view"
    },
    {
      "type": "function",
      "name": "totalEscrowed",
      "inputs": [],
      "outputs": [
        {
          "name": "",
          "type": "uint256",
          "internalType": "uint256"
        }
      ],
      "stateMutability": "view"
    },
    {
      "type": "function",
      "name": "transferOwnership",
      "inputs": [
        {
          "name": "newOwner",
          "type": "address",
          "internalType": "address"
        }
      ],
      "outputs": [],
      "stateMutability": "nonpayable"
    },
    {
      "type": "function",
      "name": "updateExchangeRate",
      "inputs": [
        {
          "name": "newRate",
          "type": "uint256",
          "internalType": "uint256"
        }
      ],
      "outputs": [],
      "stateMutability": "nonpayable"
    },
    {
      "type": "function",
      "name": "updatePaymentLimits",
      "inputs": [
        {
          "name": "lo",
          "type": "uint256",
          "internalType": "uint256"
        },
        {
          "name": "hi",
          "type": "uint256",
          "internalType": "uint256"
        }
      ],
      "outputs": [],
      "stateMutability": "nonpayable"
    },
    {
      "type": "function",
      "name": "withdraw",
      "inputs": [
        {
          "name": "amount",
          "type": "uint256",
          "internalType": "uint256"
        },
        {
          "name": "to",
          "type": "address",
          "internalType": "address payable"
        }
      ],
      "outputs": [],
      "stateMutability": "nonpayable"
    },
    {
      "type": "event",
      "name": "EscrowExpired",
      "inputs": [
        {
          "name": "escrowId",
          "type": "bytes32",
          "indexed": true,
          "internalType": "bytes32"
        },
        {
          "name": "payer",
          "type": "address",
          "indexed": true,
          "internalType": "address"
        },
        {
          "name": "amountReservedWei",
          "type": "uint256",
          "indexed": false,
          "internalType": "uint256"
        }
      ],
      "anonymous": false
    },
    {
      "type": "event",
      "name": "ExchangeRateUpdated",
      "inputs": [
        {
          "name": "oldRate",
          "type": "uint256",
          "indexed": false,
          "internalType": "uint256"
        },
        {
          "name": "newRate",
          "type": "uint256",
          "indexed": false,
          "internalType": "uint256"
        }
      ],
      "anonymous": false
    },
    {
      "type": "event",
      "name": "FeeRecipientUpdated",
      "inputs": [
        {
          "name": "oldRecipient",
          "type": "address",
          "indexed": false,
          "internalType": "address"
        },
        {
          "name": "newRecipient",
          "type": "address",
          "indexed": false,
          "internalType": "address"
        }
      ],
      "anonymous": false
    },
    {
      "type": "event",
      "name": "OwnershipTransferred",
      "inputs": [
        {
          "name": "previousOwner",
          "type": "address",
          "indexed": true,
          "internalType": "address"
        },
        {
          "name": "newOwner",
          "type": "address",
          "indexed": true,
          "internalType": "address"
        }
      ],
      "anonymous": false
    },
    {
      "type": "event",
      "name": "PaymentInitialized",
      "inputs": [
        {
          "name": "escrowId",
          "type": "bytes32",
          "indexed": true,
          "internalType": "bytes32"
        },
        {
          "name": "payer",
          "type": "address",
          "indexed": true,
          "internalType": "address"
        },
        {
          "name": "amountWei",
          "type": "uint256",
          "indexed": false,
          "internalType": "uint256"
        },
        {
          "name": "amountUsd",
          "type": "uint256",
          "indexed": false,
          "internalType": "uint256"
        }
      ],
      "anonymous": false
    },
    {
      "type": "event",
      "name": "PaymentSettled",
      "inputs": [
        {
          "name": "escrowId",
          "type": "bytes32",
          "indexed": true,
          "internalType": "bytes32"
        },
        {
          "name": "payer",
          "type": "address",
          "indexed": true,
          "internalType": "address"
        },
        {
          "name": "payoutWeiAfterFee",
          "type": "uint256",
          "indexed": false,
          "internalType": "uint256"
        },
        {
          "name": "postedUsd",
          "type": "uint256",
          "indexed": false,
          "internalType": "uint256"
        }
      ],
      "anonymous": false
    },
    {
      "type": "error",
      "name": "OwnableInvalidOwner",
      "inputs": [
        {
          "name": "owner",
          "type": "address",
          "internalType": "address"
        }
      ]
    },
    {
      "type": "error",
      "name": "OwnableUnauthorizedAccount",
      "inputs": [
        {
          "name": "account",
          "type": "address",
          "internalType": "address"
        }
      ]
    },
    {
      "type": "error",
      "name": "ReentrancyGuardReentrantCall",
      "inputs": []
    }
  ],
  "bytecode": {
    "object": "0x60a060405234801561001057600080fd5b506040516143ce3803806143ce833981810160405281019061003291906105bf565b33600073ffffffffffffffffffffffffffffffffffffffff168173ffffffffffffffffffffffffffffffffffffffff16036100a55760006040517f1e4fbdf700000000000000000000000000000000000000000000000000000000815260040161009c919061068c565b60405180910390fd5b6100b4816102c960201b60201c565b50600180819055508587106100fe576040517f08c379a00000000000000000000000000000000000000000000000000000000081526004016100f590610704565b60405180910390fd5b60008211610141576040517f08c379a000000000000000000000000000000000000000000000000000000000815260040161013890610770565b60405180910390fd5b600073ffffffffffffffffffffffffffffffffffffffff168573ffffffffffffffffffffffffffffffffffffffff16036101b0576040517f08c379a00000000000000000000000000000000000000000000000000000000081526004016101a7906107dc565b60405180910390fd5b86600381905550856004819055508473ffffffffffffffffffffffffffffffffffffffff1660808173ffffffffffffffffffffffffffffffffffffffff168152505083600290816102019190610a13565b506001600c60003373ffffffffffffffffffffffffffffffffffffffff1673ffffffffffffffffffffffffffffffffffffffff16815260200190815260200160002060006101000a81548160ff0219169083151502179055508260058190555061026f61038d60201b60201c565b600660006101000a81548173ffffffffffffffffffffffffffffffffffffffff021916908373ffffffffffffffffffffffffffffffffffffffff160217905550816007819055508060088190555050505050505050610ae5565b60008060009054906101000a900473ffffffffffffffffffffffffffffffffffffffff169050816000806101000a81548173ffffffffffffffffffffffffffffffffffffffff021916908373ffffffffffffffffffffffffffffffffffffffff1602179055508173ffffffffffffffffffffffffffffffffffffffff168173ffffffffffffffffffffffffffffffffffffffff167f8be0079c531659141344cd1fd0a4f28419497f9722a3daafe3b4186f6b6457e060405160405180910390a35050565b60008060009054906101000a900473ffffffffffffffffffffffffffffffffffffffff16905090565b6000604051905090565b600080fd5b600080fd5b6000819050919050565b6103dd816103ca565b81146103e857600080fd5b50565b6000815190506103fa816103d4565b92915050565b600073ffffffffffffffffffffffffffffffffffffffff82169050919050565b600061042b82610400565b9050919050565b61043b81610420565b811461044657600080fd5b50565b60008151905061045881610432565b92915050565b600080fd5b600080fd5b6000601f19601f8301169050919050565b7f4e487b7100000000000000000000000000000000000000000000000000000000600052604160045260246000fd5b6104b182610468565b810181811067ffffffffffffffff821117156104d0576104cf610479565b5b80604052505050565b60006104e36103b6565b90506104ef82826104a8565b919050565b600067ffffffffffffffff82111561050f5761050e610479565b5b61051882610468565b9050602081019050919050565b60005b83811015610543578082015181840152602081019050610528565b60008484015250505050565b600061056261055d846104f4565b6104d9565b90508281526020810184848401111561057e5761057d610463565b5b610589848285610525565b509392505050565b600082601f8301126105a6576105a561045e565b5b81516105b684826020860161054f565b91505092915050565b600080600080600080600060e0888a0312156105de576105dd6103c0565b5b60006105ec8a828b016103eb565b97505060206105fd8a828b016103eb565b965050604061060e8a828b01610449565b955050606088015167ffffffffffffffff81111561062f5761062e6103c5565b5b61063b8a828b01610591565b945050608061064c8a828b016103eb565b93505060a061065d8a828b016103eb565b92505060c061066e8a828b016103eb565b91505092959891949750929550565b61068681610420565b82525050565b60006020820190506106a1600083018461067d565b92915050565b600082825260208201905092915050565b7f496e76616c6964206c696d697473000000000000000000000000000000000000600082015250565b60006106ee600e836106a7565b91506106f9826106b8565b602082019050919050565b6000602082019050818103600083015261071d816106e1565b9050919050565b7f457363726f772074696d65206d757374206265203e2030000000000000000000600082015250565b600061075a6017836106a7565b915061076582610724565b602082019050919050565b600060208201905081810360008301526107898161074d565b9050919050565b7f72656769737472793d3000000000000000000000000000000000000000000000600082015250565b60006107c6600a836106a7565b91506107d182610790565b602082019050919050565b600060208201905081810360008301526107f5816107b9565b9050919050565b600081519050919050565b7f4e487b7100000000000000000000000000000000000000000000000000000000600052602260045260246000fd5b6000600282049050600182168061084e57607f821691505b60208210810361086157610860610807565b5b50919050565b60008190508160005260206000209050919050565b60006020601f8301049050919050565b600082821b905092915050565b6000600883026108c97fffffffffffffffffffffffffffffffffffffffffffffffffffffffffffffffff8261088c565b6108d3868361088c565b95508019841693508086168417925050509392505050565b6000819050919050565b600061091061090b610906846103ca565b6108eb565b6103ca565b9050919050565b6000819050919050565b61092a836108f5565b61093e61093682610917565b848454610899565b825550505050565b600090565b610953610946565b61095e818484610921565b505050565b5b818110156109825761097760008261094b565b600181019050610964565b5050565b601f8211156109c75761099881610867565b6109a18461087c565b810160208510156109b0578190505b6109c46109bc8561087c565b830182610963565b50505b505050565b600082821c905092915050565b60006109ea600019846008026109cc565b1980831691505092915050565b6000610a0383836109d9565b9150826002028217905092915050565b610a1c826107fc565b67ffffffffffffffff811115610a3557610a34610479565b5b610a3f8254610836565b610a4a828285610986565b600060209050601f831160018114610a7d5760008415610a6b578287015190505b610a7585826109f7565b865550610add565b601f198416610a8b86610867565b60005b82811015610ab357848901518255600182019150602085019450602081019050610a8e565b86831015610ad05784890151610acc601f8916826109d9565b8355505b6001600288020188555050505b505050505050565b6080516138a4610b2a60003960008181611011015281816110fe015281816111ec0152818161172d01528181611a0401528181611a4a015261221c01526138a46000f3fe60806040526004361061023e5760003560e01c80639ad2a6e51161012e578063d648f7c7116100ab578063e6aa216c1161006f578063e6aa216c146108c1578063e74b981b146108ec578063e93c4f1514610915578063f2fde38b14610940578063f91682311461096957610245565b8063d648f7c7146107b4578063d73792a9146107f1578063d8b534ba1461081c578063ddca3f4314610859578063dfe402df1461088457610245565b8063bd4205cb116100f2578063bd4205cb146106bb578063c50f4e48146106e4578063cc5be3321461070f578063d09812e11461074c578063d1b0a19e1461077757610245565b80639ad2a6e5146105d4578063a40d32fe146105ff578063acb291ea1461062a578063b9e205ae14610655578063bd07f3c91461067e57610245565b806348116245116101bc578063786f129511610180578063786f1295146104d95780637dd6eb34146105165780637f8d429e146105415780638d84ffdf1461057e5780638da5cb5b146105a957610245565b8063481162451461041a5780634c9fc9a71461044357806353aa65361461046e5780636ea33ceb14610497578063715018a6146104c257610245565b80632e856ca1116102035780632e856ca114610347578063325fda8a146103705780633ba0b9a91461039957806346904840146103c45780634692cc52146103ef57610245565b8062f714ce1461024a57806303691e76146102735780630716326d146102b05780630bacd1ba146102f55780630f01b9371461031e57610245565b3661024557005b600080fd5b34801561025657600080fd5b50610271600480360381019061026c9190612704565b610994565b005b34801561027f57600080fd5b5061029a60048036038101906102959190612744565b610ab0565b6040516102a7919061278a565b60405180910390f35b3480156102bc57600080fd5b506102d760048036038101906102d291906127d1565b610ad4565b6040516102ec9998979695949392919061282e565b60405180910390f35b34801561030157600080fd5b5061031c600480360381019061031791906128e7565b610b62565b005b34801561032a57600080fd5b50610345600480360381019061034091906127d1565b610bc5565b005b34801561035357600080fd5b5061036e60048036038101906103699190612914565b610d41565b005b34801561037c57600080fd5b50610397600480360381019061039291906127d1565b610ded565b005b3480156103a557600080fd5b506103ae61151e565b6040516103bb9190612967565b60405180910390f35b3480156103d057600080fd5b506103d9611524565b6040516103e69190612982565b60405180910390f35b3480156103fb57600080fd5b5061040461154a565b6040516104119190612967565b60405180910390f35b34801561042657600080fd5b50610441600480360381019061043c919061299d565b611550565b005b34801561044f57600080fd5b506104586115fb565b6040516104659190612a6d565b60405180910390f35b34801561047a57600080fd5b5061049560048036038101906104909190612a8f565b611689565b005b3480156104a357600080fd5b506104ac6116e5565b6040516104b99190612967565b60405180910390f35b3480156104ce57600080fd5b506104d76116eb565b005b3480156104e557600080fd5b5061050060048036038101906104fb9190612744565b6116ff565b60405161050d919061278a565b60405180910390f35b34801561052257600080fd5b5061052b611723565b6040516105389190612967565b60405180910390f35b34801561054d57600080fd5b50610568600480360381019061056391906127d1565b611729565b6040516105759190612aea565b60405180910390f35b34801561058a57600080fd5b506105936117cc565b6040516105a09190612bc3565b60405180910390f35b3480156105b557600080fd5b506105be611824565b6040516105cb9190612982565b60405180910390f35b3480156105e057600080fd5b506105e961184d565b6040516105f69190612967565b60405180910390f35b34801561060b57600080fd5b50610614611852565b6040516106219190612967565b60405180910390f35b34801561063657600080fd5b5061063f611858565b60405161064c9190612bc3565b60405180910390f35b34801561066157600080fd5b5061067c60048036038101906106779190612744565b6118b0565b005b34801561068a57600080fd5b506106a560048036038101906106a091906127d1565b611903565b6040516106b29190612aea565b60405180910390f35b3480156106c757600080fd5b506106e260048036038101906106dd91906128e7565b611923565b005b3480156106f057600080fd5b506106f9611986565b6040516107069190612bc3565b60405180910390f35b34801561071b57600080fd5b5061073660048036038101906107319190612744565b6119de565b604051610743919061278a565b60405180910390f35b34801561075857600080fd5b50610761611a02565b60405161076e9190612c44565b60405180910390f35b34801561078357600080fd5b5061079e600480360381019061079991906128e7565b611a26565b6040516107ab9190612aea565b60405180910390f35b3480156107c057600080fd5b506107db60048036038101906107d691906127d1565b611a46565b6040516107e89190612cd6565b60405180910390f35b3480156107fd57600080fd5b50610806611ae9565b6040516108139190612967565b60405180910390f35b34801561082857600080fd5b50610843600480360381019061083e9190612744565b611aef565b604051610850919061278a565b60405180910390f35b34801561086557600080fd5b5061086e611b13565b60405161087b9190612967565b60405180910390f35b34801561089057600080fd5b506108ab60048036038101906108a691906127d1565b611b19565b6040516108b89190612aea565b60405180910390f35b3480156108cd57600080fd5b506108d6611c89565b6040516108e39190612967565b60405180910390f35b3480156108f857600080fd5b50610913600480360381019061090e91906128e7565b611c93565b005b34801561092157600080fd5b5061092a611daf565b6040516109379190612967565b60405180910390f35b34801561094c57600080fd5b50610967600480360381019061096291906128e7565b611dc4565b005b34801561097557600080fd5b5061097e611e4a565b60405161098b9190612967565b60405180910390f35b61099c611e50565b6109a4611ed7565b600073ffffffffffffffffffffffffffffffffffffffff168173ffffffffffffffffffffffffffffffffffffffff1603610a13576040517f08c379a0000000000000000000000000000000000000000000000000000000008152600401610a0a90612d3d565b60405180910390fd5b610a1b611daf565b821115610a5d576040517f08c379a0000000000000000000000000000000000000000000000000000000008152600401610a5490612da9565b60405180910390fd5b8073ffffffffffffffffffffffffffffffffffffffff166108fc839081150290604051600060405180830381858888f19350505050158015610aa3573d6000803e3d6000fd5b50610aac611f1d565b5050565b60118181548110610ac057600080fd5b906000526020600020016000915090505481565b600a6020528060005260406000206000915090508060000160009054906101000a900473ffffffffffffffffffffffffffffffffffffffff16908060010160009054906101000a900473ffffffffffffffffffffffffffffffffffffffff16908060020154908060030154908060040154908060050154908060060154908060070154908060080154905089565b610b6a611e50565b6001600c60008373ffffffffffffffffffffffffffffffffffffffff1673ffffffffffffffffffffffffffffffffffffffff16815260200190815260200160002060006101000a81548160ff02191690831515021790555050565b610bcd611ed7565b6000600a60008381526020019081526020016000209050600073ffffffffffffffffffffffffffffffffffffffff168160000160009054906101000a900473ffffffffffffffffffffffffffffffffffffffff1673ffffffffffffffffffffffffffffffffffffffff1603610c77576040517f08c379a0000000000000000000000000000000000000000000000000000000008152600401610c6e90612e15565b60405180910390fd5b600b600083815260200190815260200160002060009054906101000a900460ff1615610cd8576040517f08c379a0000000000000000000000000000000000000000000000000000000008152600401610ccf90612e81565b60405180910390fd5b6007548160080154610cea9190612ed0565b4211610d2b576040517f08c379a0000000000000000000000000000000000000000000000000000000008152600401610d2290612f50565b60405180910390fd5b610d358282611f26565b50610d3e611f1d565b50565b81600354811015610d87576040517f08c379a0000000000000000000000000000000000000000000000000000000008152600401610d7e90612fbc565b60405180910390fd5b600454811115610dcc576040517f08c379a0000000000000000000000000000000000000000000000000000000008152600401610dc390613028565b60405180910390fd5b610dd4611ed7565b610ddf84848461201c565b610de7611f1d565b50505050565b610df5611ed7565b6000600a60008381526020019081526020016000209050600073ffffffffffffffffffffffffffffffffffffffff168160000160009054906101000a900473ffffffffffffffffffffffffffffffffffffffff1673ffffffffffffffffffffffffffffffffffffffff1603610e9f576040517f08c379a0000000000000000000000000000000000000000000000000000000008152600401610e9690613094565b60405180910390fd5b600c60003373ffffffffffffffffffffffffffffffffffffffff1673ffffffffffffffffffffffffffffffffffffffff16815260200190815260200160002060009054906101000a900460ff1680610f4657508060000160009054906101000a900473ffffffffffffffffffffffffffffffffffffffff1673ffffffffffffffffffffffffffffffffffffffff163373ffffffffffffffffffffffffffffffffffffffff16145b610f85576040517f08c379a0000000000000000000000000000000000000000000000000000000008152600401610f7c90613100565b60405180910390fd5b600b600083815260200190815260200160002060009054906101000a900460ff1615610fe6576040517f08c379a0000000000000000000000000000000000000000000000000000000008152600401610fdd90612e81565b60405180910390fd5b6007548160080154610ff89190612ed0565b42111561100f576110098282611f26565b50611513565b7f000000000000000000000000000000000000000000000000000000000000000073ffffffffffffffffffffffffffffffffffffffff16637f8d429e836040518263ffffffff1660e01b8152600401611068919061278a565b602060405180830381865afa158015611085573d6000803e3d6000fd5b505050506040513d601f19601f820116820180604052508101906110a9919061314c565b6110e8576040517f08c379a00000000000000000000000000000000000000000000000000000000081526004016110df906131c5565b60405180910390fd5b600360048111156110fc576110fb612c5f565b5b7f000000000000000000000000000000000000000000000000000000000000000073ffffffffffffffffffffffffffffffffffffffff1663d648f7c7846040518263ffffffff1660e01b8152600401611155919061278a565b602060405180830381865afa158015611172573d6000803e3d6000fd5b505050506040513d601f19601f82011682018060405250810190611196919061320a565b60048111156111a8576111a7612c5f565b5b146111e8576040517f08c379a00000000000000000000000000000000000000000000000000000000081526004016111df90613283565b60405180910390fd5b60007f000000000000000000000000000000000000000000000000000000000000000073ffffffffffffffffffffffffffffffffffffffff166342717769846040518263ffffffff1660e01b8152600401611243919061278a565b602060405180830381865afa158015611260573d6000803e3d6000fd5b505050506040513d601f19601f8201168201806040525081019061128491906132b8565b9050600081116112c9576040517f08c379a00000000000000000000000000000000000000000000000000000000081526004016112c090613331565b60405180910390fd5b6000600854670de0b6b3a7640000836112e29190613351565b6112ec91906133c2565b905060008190506000612710600554836113069190613351565b61131091906133c2565b90506000818361132091906133f3565b90506001600b600089815260200190815260200160002060006101000a81548160ff02191690831515021790555085600201546009600082825461136491906133f3565b9250508190555084866005018190555082866004018190555060008111156113f2578560010160009054906101000a900473ffffffffffffffffffffffffffffffffffffffff1673ffffffffffffffffffffffffffffffffffffffff166108fc829081150290604051600060405180830381858888f193505050501580156113f0573d6000803e3d6000fd5b505b600082111561146557600660009054906101000a900473ffffffffffffffffffffffffffffffffffffffff1673ffffffffffffffffffffffffffffffffffffffff166108fc839081150290604051600060405180830381858888f19350505050158015611463573d6000803e3d6000fd5b505b61146e876124aa565b60118790806001815401808255809150506001900390600052602060002001600090919091909150558560000160009054906101000a900473ffffffffffffffffffffffffffffffffffffffff1673ffffffffffffffffffffffffffffffffffffffff16877f3ec2e7376d6068b1d531c773e73dc5f6dd7e95bfae5b399f2971ff4be9794ec98388604051611504929190613427565b60405180910390a35050505050505b61151b611f1d565b50565b60085481565b600660009054906101000a900473ffffffffffffffffffffffffffffffffffffffff1681565b60075481565b80600354811015611596576040517f08c379a000000000000000000000000000000000000000000000000000000000815260040161158d90612fbc565b60405180910390fd5b6004548111156115db576040517f08c379a00000000000000000000000000000000000000000000000000000000081526004016115d290613028565b60405180910390fd5b6115e3611ed7565b6115ee83833361201c565b6115f6611f1d565b505050565b600280546116089061347f565b80601f01602080910402602001604051908101604052809291908181526020018280546116349061347f565b80156116815780601f1061165657610100808354040283529160200191611681565b820191906000526020600020905b81548152906001019060200180831161166457829003601f168201915b505050505081565b611691611e50565b8082106116d3576040517f08c379a00000000000000000000000000000000000000000000000000000000081526004016116ca906134fc565b60405180910390fd5b81600381905550806004819055505050565b610e1081565b6116f3611e50565b6116fd600061259f565b565b600e818154811061170f57600080fd5b906000526020600020016000915090505481565b60045481565b60007f000000000000000000000000000000000000000000000000000000000000000073ffffffffffffffffffffffffffffffffffffffff16637f8d429e836040518263ffffffff1660e01b8152600401611784919061278a565b602060405180830381865afa1580156117a1573d6000803e3d6000fd5b505050506040513d601f19601f820116820180604052508101906117c5919061314c565b9050919050565b6060601180548060200260200160405190810160405280929190818152602001828054801561181a57602002820191906000526020600020905b815481526020019060010190808311611806575b5050505050905090565b60008060009054906101000a900473ffffffffffffffffffffffffffffffffffffffff16905090565b600a81565b60035481565b6060600e8054806020026020016040519081016040528092919081815260200182805480156118a657602002820191906000526020600020905b815481526020019060010190808311611892575b5050505050905090565b6118b8611e50565b60006008549050816008819055507fc8d1043f24843c0a1c9251fdc30017d84e87498fbcf232af9f86816b5e182bde81836040516118f7929190613427565b60405180910390a15050565b600b6020528060005260406000206000915054906101000a900460ff1681565b61192b611e50565b6000600c60008373ffffffffffffffffffffffffffffffffffffffff1673ffffffffffffffffffffffffffffffffffffffff16815260200190815260200160002060006101000a81548160ff02191690831515021790555050565b6060600f8054806020026020016040519081016040528092919081815260200182805480156119d457602002820191906000526020600020905b8154815260200190600101908083116119c0575b5050505050905090565b600f81815481106119ee57600080fd5b906000526020600020016000915090505481565b7f000000000000000000000000000000000000000000000000000000000000000081565b600c6020528060005260406000206000915054906101000a900460ff1681565b60007f000000000000000000000000000000000000000000000000000000000000000073ffffffffffffffffffffffffffffffffffffffff1663d648f7c7836040518263ffffffff1660e01b8152600401611aa1919061278a565b602060405180830381865afa158015611abe573d6000803e3d6000fd5b505050506040513d601f19601f82011682018060405250810190611ae2919061320a565b9050919050565b61271081565b60128181548110611aff57600080fd5b906000526020600020016000915090505481565b60055481565b600080600a6000848152602001908152602001600020604051806101200160405290816000820160009054906101000a900473ffffffffffffffffffffffffffffffffffffffff1673ffffffffffffffffffffffffffffffffffffffff1673ffffffffffffffffffffffffffffffffffffffff1681526020016001820160009054906101000a900473ffffffffffffffffffffffffffffffffffffffff1673ffffffffffffffffffffffffffffffffffffffff1673ffffffffffffffffffffffffffffffffffffffff1681526020016002820154815260200160038201548152602001600482015481526020016005820154815260200160068201548152602001600782015481526020016008820154815250509050600073ffffffffffffffffffffffffffffffffffffffff16816000015173ffffffffffffffffffffffffffffffffffffffff1614158015611c815750600754816101000151611c7e9190612ed0565b42115b915050919050565b6000600854905090565b611c9b611e50565b600073ffffffffffffffffffffffffffffffffffffffff168173ffffffffffffffffffffffffffffffffffffffff1603611d0a576040517f08c379a0000000000000000000000000000000000000000000000000000000008152600401611d0190613568565b60405180910390fd5b6000600660009054906101000a900473ffffffffffffffffffffffffffffffffffffffff16905081600660006101000a81548173ffffffffffffffffffffffffffffffffffffffff021916908373ffffffffffffffffffffffffffffffffffffffff1602179055507faaebcf1bfa00580e41d966056b48521fa9f202645c86d4ddf28113e617c1b1d38183604051611da3929190613588565b60405180910390a15050565b600060095447611dbf91906133f3565b905090565b611dcc611e50565b600073ffffffffffffffffffffffffffffffffffffffff168173ffffffffffffffffffffffffffffffffffffffff1603611e3e5760006040517f1e4fbdf7000000000000000000000000000000000000000000000000000000008152600401611e359190612982565b60405180910390fd5b611e478161259f565b50565b60095481565b611e58612663565b73ffffffffffffffffffffffffffffffffffffffff16611e76611824565b73ffffffffffffffffffffffffffffffffffffffff1614611ed557611e99612663565b6040517f118cdaa7000000000000000000000000000000000000000000000000000000008152600401611ecc9190612982565b60405180910390fd5b565b600260015403611f13576040517f3ee5aeb500000000000000000000000000000000000000000000000000000000815260040160405180910390fd5b6002600181905550565b60018081905550565b6001600b600084815260200190815260200160002060006101000a81548160ff021916908315150217905550611f5b826124aa565b6012829080600181540180825580915050600190039060005260206000200160009091909190915055806002015460096000828254611f9a91906133f3565b925050819055508060000160009054906101000a900473ffffffffffffffffffffffffffffffffffffffff1673ffffffffffffffffffffffffffffffffffffffff16827ffee9d3bc684708fe4e19fee12500eff9ec882d63ae157dff430ddd1a375450bb83600201546040516120109190612967565b60405180910390a35050565b600073ffffffffffffffffffffffffffffffffffffffff16600a600085815260200190815260200160002060000160009054906101000a900473ffffffffffffffffffffffffffffffffffffffff1673ffffffffffffffffffffffffffffffffffffffff16146120c1576040517f08c379a00000000000000000000000000000000000000000000000000000000081526004016120b8906135fd565b60405180910390fd5b600d600084815260200190815260200160002060009054906101000a900460ff1615612122576040517f08c379a000000000000000000000000000000000000000000000000000000000815260040161211990613669565b60405180910390fd5b8161212b611daf565b101561216c576040517f08c379a0000000000000000000000000000000000000000000000000000000008152600401612163906136d5565b60405180910390fd5b6000670de0b6b3a7640000600854846121859190613351565b61218f91906133c2565b905082600960008282546121a39190612ed0565b925050819055506001600d600086815260200190815260200160002060006101000a81548160ff021916908315150217905550600e849080600181540180825580915050600190039060005260206000200160009091909190915055600060026040516122109190613798565b604051809103902090507f000000000000000000000000000000000000000000000000000000000000000073ffffffffffffffffffffffffffffffffffffffff16631dcd4beb86833330876000801b6040518763ffffffff1660e01b8152600401612280969594939291906137af565b600060405180830381600087803b15801561229a57600080fd5b505af11580156122ae573d6000803e3d6000fd5b505050506040518061012001604052803373ffffffffffffffffffffffffffffffffffffffff1681526020018473ffffffffffffffffffffffffffffffffffffffff16815260200185815260200183815260200160008152602001600081526020014281526020016000815260200142815250600a600087815260200190815260200160002060008201518160000160006101000a81548173ffffffffffffffffffffffffffffffffffffffff021916908373ffffffffffffffffffffffffffffffffffffffff16021790555060208201518160010160006101000a81548173ffffffffffffffffffffffffffffffffffffffff021916908373ffffffffffffffffffffffffffffffffffffffff16021790555060408201518160020155606082015181600301556080820151816004015560a0820151816005015560c0820151816006015560e082015181600701556101008201518160080155905050600f859080600181540180825580915050600190039060005260206000200160009091909190915055600f8054905060106000878152602001908152602001600020819055503373ffffffffffffffffffffffffffffffffffffffff16857f5ad6d49c1cb35c41719407c702c23b7273b60ec32619dd65cfd5b23a6f26651c868560405161249b929190613427565b60405180910390a35050505050565b600060106000838152602001908152602001600020549050600081111561259b5760006001826124da91906133f3565b905060006001600f805490506124f091906133f3565b9050808214612559576000600f828154811061250f5761250e613810565b5b9060005260206000200154905080600f848154811061253157612530613810565b5b9060005260206000200181905550836010600083815260200190815260200160002081905550505b600f80548061256b5761256a61383f565b5b60019003818190600052602060002001600090559055601060008581526020019081526020016000206000905550505b5050565b60008060009054906101000a900473ffffffffffffffffffffffffffffffffffffffff169050816000806101000a81548173ffffffffffffffffffffffffffffffffffffffff021916908373ffffffffffffffffffffffffffffffffffffffff1602179055508173ffffffffffffffffffffffffffffffffffffffff168173ffffffffffffffffffffffffffffffffffffffff167f8be0079c531659141344cd1fd0a4f28419497f9722a3daafe3b4186f6b6457e060405160405180910390a35050565b600033905090565b600080fd5b6000819050919050565b61268381612670565b811461268e57600080fd5b50565b6000813590506126a08161267a565b92915050565b600073ffffffffffffffffffffffffffffffffffffffff82169050919050565b60006126d1826126a6565b9050919050565b6126e1816126c6565b81146126ec57600080fd5b50565b6000813590506126fe816126d8565b92915050565b6000806040838503121561271b5761271a61266b565b5b600061272985828601612691565b925050602061273a858286016126ef565b9150509250929050565b60006020828403121561275a5761275961266b565b5b600061276884828501612691565b91505092915050565b6000819050919050565b61278481612771565b82525050565b600060208201905061279f600083018461277b565b92915050565b6127ae81612771565b81146127b957600080fd5b50565b6000813590506127cb816127a5565b92915050565b6000602082840312156127e7576127e661266b565b5b60006127f5848285016127bc565b91505092915050565b6000612809826126a6565b9050919050565b612819816127fe565b82525050565b61282881612670565b82525050565b600061012082019050612844600083018c612810565b612851602083018b612810565b61285e604083018a61281f565b61286b606083018961281f565b612878608083018861281f565b61288560a083018761281f565b61289260c083018661281f565b61289f60e083018561281f565b6128ad61010083018461281f565b9a9950505050505050505050565b6128c4816127fe565b81146128cf57600080fd5b50565b6000813590506128e1816128bb565b92915050565b6000602082840312156128fd576128fc61266b565b5b600061290b848285016128d2565b91505092915050565b60008060006060848603121561292d5761292c61266b565b5b600061293b868287016127bc565b935050602061294c86828701612691565b925050604061295d868287016126ef565b9150509250925092565b600060208201905061297c600083018461281f565b92915050565b60006020820190506129976000830184612810565b92915050565b600080604083850312156129b4576129b361266b565b5b60006129c2858286016127bc565b92505060206129d385828601612691565b9150509250929050565b600081519050919050565b600082825260208201905092915050565b60005b83811015612a175780820151818401526020810190506129fc565b60008484015250505050565b6000601f19601f8301169050919050565b6000612a3f826129dd565b612a4981856129e8565b9350612a598185602086016129f9565b612a6281612a23565b840191505092915050565b60006020820190508181036000830152612a878184612a34565b905092915050565b60008060408385031215612aa657612aa561266b565b5b6000612ab485828601612691565b9250506020612ac585828601612691565b9150509250929050565b60008115159050919050565b612ae481612acf565b82525050565b6000602082019050612aff6000830184612adb565b92915050565b600081519050919050565b600082825260208201905092915050565b6000819050602082019050919050565b612b3a81612771565b82525050565b6000612b4c8383612b31565b60208301905092915050565b6000602082019050919050565b6000612b7082612b05565b612b7a8185612b10565b9350612b8583612b21565b8060005b83811015612bb6578151612b9d8882612b40565b9750612ba883612b58565b925050600181019050612b89565b5085935050505092915050565b60006020820190508181036000830152612bdd8184612b65565b905092915050565b6000819050919050565b6000612c0a612c05612c00846126a6565b612be5565b6126a6565b9050919050565b6000612c1c82612bef565b9050919050565b6000612c2e82612c11565b9050919050565b612c3e81612c23565b82525050565b6000602082019050612c596000830184612c35565b92915050565b7f4e487b7100000000000000000000000000000000000000000000000000000000600052602160045260246000fd5b60058110612c9f57612c9e612c5f565b5b50565b6000819050612cb082612c8e565b919050565b6000612cc082612ca2565b9050919050565b612cd081612cb5565b82525050565b6000602082019050612ceb6000830184612cc7565b92915050565b7f496e76616c696420726563697069656e74000000000000000000000000000000600082015250565b6000612d276011836129e8565b9150612d3282612cf1565b602082019050919050565b60006020820190508181036000830152612d5681612d1a565b9050919050565b7f496e73756666696369656e7420667265652062616c616e636500000000000000600082015250565b6000612d936019836129e8565b9150612d9e82612d5d565b602082019050919050565b60006020820190508181036000830152612dc281612d86565b9050919050565b7f457363726f77206e6f7420696e697469616c697a656400000000000000000000600082015250565b6000612dff6016836129e8565b9150612e0a82612dc9565b602082019050919050565b60006020820190508181036000830152612e2e81612df2565b9050919050565b7f416c726561647920736574746c65640000000000000000000000000000000000600082015250565b6000612e6b600f836129e8565b9150612e7682612e35565b602082019050919050565b60006020820190508181036000830152612e9a81612e5e565b9050919050565b7f4e487b7100000000000000000000000000000000000000000000000000000000600052601160045260246000fd5b6000612edb82612670565b9150612ee683612670565b9250828201905080821115612efe57612efd612ea1565b5b92915050565b7f4e6f742065787069726564207965740000000000000000000000000000000000600082015250565b6000612f3a600f836129e8565b9150612f4582612f04565b602082019050919050565b60006020820190508181036000830152612f6981612f2d565b9050919050565b7f416d6f756e7420746f6f206c6f77000000000000000000000000000000000000600082015250565b6000612fa6600e836129e8565b9150612fb182612f70565b602082019050919050565b60006020820190508181036000830152612fd581612f99565b9050919050565b7f416d6f756e7420746f6f20686967680000000000000000000000000000000000600082015250565b6000613012600f836129e8565b915061301d82612fdc565b602082019050919050565b6000602082019050818103600083015261304181613005565b9050919050565b7f4e6f7420696e697469616c697a65640000000000000000000000000000000000600082015250565b600061307e600f836129e8565b915061308982613048565b602082019050919050565b600060208201905081810360008301526130ad81613071565b9050919050565b7f4e6f7420617574686f72697a6564000000000000000000000000000000000000600082015250565b60006130ea600e836129e8565b91506130f5826130b4565b602082019050919050565b60006020820190508181036000830152613119816130dd565b9050919050565b61312981612acf565b811461313457600080fd5b50565b60008151905061314681613120565b92915050565b6000602082840312156131625761316161266b565b5b600061317084828501613137565b91505092915050565b7f5265676973747279206e6f742066696e616c697a656400000000000000000000600082015250565b60006131af6016836129e8565b91506131ba82613179565b602082019050919050565b600060208201905081810360008301526131de816131a2565b9050919050565b600581106131f257600080fd5b50565b600081519050613204816131e5565b92915050565b6000602082840312156132205761321f61266b565b5b600061322e848285016131f5565b91505092915050565b7f4e6f7420636f6e6669726d656400000000000000000000000000000000000000600082015250565b600061326d600d836129e8565b915061327882613237565b602082019050919050565b6000602082019050818103600083015261329c81613260565b9050919050565b6000815190506132b28161267a565b92915050565b6000602082840312156132ce576132cd61266b565b5b60006132dc848285016132a3565b91505092915050565b7f4e6f20706f7374656420616d6f756e7400000000000000000000000000000000600082015250565b600061331b6010836129e8565b9150613326826132e5565b602082019050919050565b6000602082019050818103600083015261334a8161330e565b9050919050565b600061335c82612670565b915061336783612670565b925082820261337581612670565b9150828204841483151761338c5761338b612ea1565b5b5092915050565b7f4e487b7100000000000000000000000000000000000000000000000000000000600052601260045260246000fd5b60006133cd82612670565b91506133d883612670565b9250826133e8576133e7613393565b5b828204905092915050565b60006133fe82612670565b915061340983612670565b925082820390508181111561342157613420612ea1565b5b92915050565b600060408201905061343c600083018561281f565b613449602083018461281f565b9392505050565b7f4e487b7100000000000000000000000000000000000000000000000000000000600052602260045260246000fd5b6000600282049050600182168061349757607f821691505b6020821081036134aa576134a9613450565b5b50919050565b7f496e76616c6964206c696d697473000000000000000000000000000000000000600082015250565b60006134e6600e836129e8565b91506134f1826134b0565b602082019050919050565b60006020820190508181036000830152613515816134d9565b9050919050565b7f496e76616c69642066656520726563697069656e740000000000000000000000600082015250565b60006135526015836129e8565b915061355d8261351c565b602082019050919050565b6000602082019050818103600083015261358181613545565b9050919050565b600060408201905061359d6000830185612810565b6135aa6020830184612810565b9392505050565b7f416c726561647920696e697469616c697a656400000000000000000000000000600082015250565b60006135e76013836129e8565b91506135f2826135b1565b602082019050919050565b60006020820190508181036000830152613616816135da565b9050919050565b7f536574746c656d656e7420494420616c72656164792065786973747300000000600082015250565b6000613653601c836129e8565b915061365e8261361d565b602082019050919050565b6000602082019050818103600083015261368281613646565b9050919050565b7f496e73756666696369656e7420667265652066756e6473000000000000000000600082015250565b60006136bf6017836129e8565b91506136ca82613689565b602082019050919050565b600060208201905081810360008301526136ee816136b2565b9050919050565b600081905092915050565b60008190508160005260206000209050919050565b600081546137228161347f565b61372c81866136f5565b94506001821660008114613747576001811461375c5761378f565b60ff198316865281151582028601935061378f565b61376585613700565b60005b8381101561378757815481890152600182019150602081019050613768565b838801955050505b50505092915050565b60006137a48284613715565b915081905092915050565b600060c0820190506137c4600083018961277b565b6137d1602083018861277b565b6137de6040830187612810565b6137eb6060830186612810565b6137f8608083018561281f565b61380560a083018461277b565b979650505050505050565b7f4e487b7100000000000000000000000000000000000000000000000000000000600052603260045260246000fd5b7f4e487b7100000000000000000000000000000000000000000000000000000000600052603160045260246000fdfea2646970667358221220dfb1f94bb52b2d3c20e59217c7cfff7802587bbed926ff4c2d1e565e83ef86d564736f6c634300081e0033",
    "linkReferences": {}
  },
  "methodIdentifiers": {
    "CHECK_INTERVAL()": "6ea33ceb",
    "FEE_DENOMINATOR()": "d73792a9",
    "MAX_CHECK_COUNT()": "9ad2a6e5",
    "addAuthorizedAttester(address)": "0bacd1ba",
    "authorizedAttesters(address)": "d1b0a19e",
    "completedEscrows(uint256)": "03691e76",
    "escrowIds(uint256)": "786f1295",
    "exchangeRate()": "3ba0b9a9",
    "expireEscrow(bytes32)": "0f01b937",
    "expiredEscrows(uint256)": "d8b534ba",
    "fee()": "ddca3f43",
    "feeRecipient()": "46904840",
    "getCompletedEscrows()": "8d84ffdf",
    "getEscrowIds()": "acb291ea",
    "getExchangeRate()": "e6aa216c",
    "getFreeBalance()": "e93c4f15",
    "getPendingEscrows()": "c50f4e48",
    "getSettlementStatus(bytes32)": "d648f7c7",
    "initPayment(bytes32,uint256)": "48116245",
    "initPayment(bytes32,uint256,address)": "2e856ca1",
    "isEscrowExpired(bytes32)": "dfe402df",
    "isFinalized(bytes32)": "7f8d429e",
    "isSettled(bytes32)": "bd07f3c9",
    "maxEscrowTime()": "4692cc52",
    "maxPaymentAmount()": "7dd6eb34",
    "minPaymentAmount()": "a40d32fe",
    "owner()": "8da5cb5b",
    "payments(bytes32)": "0716326d",
    "pendingEscrows(uint256)": "cc5be332",
    "recipientEmail()": "4c9fc9a7",
    "removeAuthorizedAttester(address)": "bd4205cb",
    "renounceOwnership()": "715018a6",
    "setFeeRecipient(address)": "e74b981b",
    "settlePayment(bytes32)": "325fda8a",
    "settlementRegistry()": "d09812e1",
    "totalEscrowed()": "f9168231",
    "transferOwnership(address)": "f2fde38b",
    "updateExchangeRate(uint256)": "b9e205ae",
    "updatePaymentLimits(uint256,uint256)": "53aa6536",
    "withdraw(uint256,address)": "00f714ce"
  },
  "id": 3
}